{
  "_format": "hh-sol-artifact-1",
  "contractName": "EternalNFT",
  "sourceName": "contracts/EternalNFT.sol",
  "abi": [
    {
      "inputs": [
        {
          "internalType": "address",
          "name": "marketplaceAddress",
          "type": "address"
        }
      ],
      "stateMutability": "nonpayable",
      "type": "constructor"
    },
    {
      "anonymous": false,
      "inputs": [
        {
          "indexed": true,
          "internalType": "address",
          "name": "owner",
          "type": "address"
        },
        {
          "indexed": true,
          "internalType": "address",
          "name": "approved",
          "type": "address"
        },
        {
          "indexed": true,
          "internalType": "uint256",
          "name": "tokenId",
          "type": "uint256"
        }
      ],
      "name": "Approval",
      "type": "event"
    },
    {
      "anonymous": false,
      "inputs": [
        {
          "indexed": true,
          "internalType": "address",
          "name": "owner",
          "type": "address"
        },
        {
          "indexed": true,
          "internalType": "address",
          "name": "operator",
          "type": "address"
        },
        {
          "indexed": false,
          "internalType": "bool",
          "name": "approved",
          "type": "bool"
        }
      ],
      "name": "ApprovalForAll",
      "type": "event"
    },
    {
      "anonymous": false,
      "inputs": [
        {
          "indexed": true,
          "internalType": "address",
          "name": "from",
          "type": "address"
        },
        {
          "indexed": true,
          "internalType": "address",
          "name": "to",
          "type": "address"
        },
        {
          "indexed": true,
          "internalType": "uint256",
          "name": "tokenId",
          "type": "uint256"
        }
      ],
      "name": "Transfer",
      "type": "event"
    },
    {
      "inputs": [
        {
          "internalType": "address",
          "name": "to",
          "type": "address"
        },
        {
          "internalType": "uint256",
          "name": "tokenId",
          "type": "uint256"
        }
      ],
      "name": "approve",
      "outputs": [],
      "stateMutability": "nonpayable",
      "type": "function"
    },
    {
      "inputs": [
        {
          "internalType": "address",
          "name": "owner",
          "type": "address"
        }
      ],
      "name": "balanceOf",
      "outputs": [
        {
          "internalType": "uint256",
          "name": "",
          "type": "uint256"
        }
      ],
      "stateMutability": "view",
      "type": "function"
    },
    {
      "inputs": [],
      "name": "collectionName",
      "outputs": [
        {
          "internalType": "string",
          "name": "",
          "type": "string"
        }
      ],
      "stateMutability": "view",
      "type": "function"
    },
    {
      "inputs": [],
      "name": "collectionSymbol",
      "outputs": [
        {
          "internalType": "string",
          "name": "",
          "type": "string"
        }
      ],
      "stateMutability": "view",
      "type": "function"
    },
    {
      "inputs": [],
      "name": "createEternalNFT",
      "outputs": [
        {
          "internalType": "uint256",
          "name": "",
          "type": "uint256"
        }
      ],
      "stateMutability": "nonpayable",
      "type": "function"
    },
    {
      "inputs": [
        {
          "internalType": "uint256",
          "name": "tokenId",
          "type": "uint256"
        }
      ],
      "name": "getApproved",
      "outputs": [
        {
          "internalType": "address",
          "name": "",
          "type": "address"
        }
      ],
      "stateMutability": "view",
      "type": "function"
    },
    {
      "inputs": [],
      "name": "getMyEternalNFT",
      "outputs": [
        {
          "components": [
            {
              "internalType": "uint256",
              "name": "tokenId",
              "type": "uint256"
            },
            {
              "internalType": "address",
              "name": "owner",
              "type": "address"
            },
            {
              "internalType": "string",
              "name": "tokenUri",
              "type": "string"
            }
          ],
          "internalType": "struct EternalNFT.nftItem[]",
          "name": "",
          "type": "tuple[]"
        }
      ],
      "stateMutability": "view",
      "type": "function"
    },
    {
      "inputs": [
        {
          "internalType": "address",
          "name": "owner",
          "type": "address"
        },
        {
          "internalType": "address",
          "name": "operator",
          "type": "address"
        }
      ],
      "name": "isApprovedForAll",
      "outputs": [
        {
          "internalType": "bool",
          "name": "",
          "type": "bool"
        }
      ],
      "stateMutability": "view",
      "type": "function"
    },
    {
      "inputs": [],
      "name": "name",
      "outputs": [
        {
          "internalType": "string",
          "name": "",
          "type": "string"
        }
      ],
      "stateMutability": "view",
      "type": "function"
    },
    {
      "inputs": [
        {
          "internalType": "uint256",
          "name": "tokenId",
          "type": "uint256"
        }
      ],
      "name": "ownerOf",
      "outputs": [
        {
          "internalType": "address",
          "name": "",
          "type": "address"
        }
      ],
      "stateMutability": "view",
      "type": "function"
    },
    {
      "inputs": [
        {
          "internalType": "uint256",
          "name": "tokenId",
          "type": "uint256"
        }
      ],
      "name": "pickFirstWord",
      "outputs": [
        {
          "internalType": "string",
          "name": "",
          "type": "string"
        }
      ],
      "stateMutability": "view",
      "type": "function"
    },
    {
      "inputs": [
        {
          "internalType": "uint256",
          "name": "tokenId",
          "type": "uint256"
        }
      ],
      "name": "pickSecondWord",
      "outputs": [
        {
          "internalType": "string",
          "name": "",
          "type": "string"
        }
      ],
      "stateMutability": "view",
      "type": "function"
    },
    {
      "inputs": [
        {
          "internalType": "uint256",
          "name": "tokenId",
          "type": "uint256"
        }
      ],
      "name": "pickThirdWord",
      "outputs": [
        {
          "internalType": "string",
          "name": "",
          "type": "string"
        }
      ],
      "stateMutability": "view",
      "type": "function"
    },
    {
      "inputs": [
        {
          "internalType": "address",
          "name": "from",
          "type": "address"
        },
        {
          "internalType": "address",
          "name": "to",
          "type": "address"
        },
        {
          "internalType": "uint256",
          "name": "tokenId",
          "type": "uint256"
        }
      ],
      "name": "safeTransferFrom",
      "outputs": [],
      "stateMutability": "nonpayable",
      "type": "function"
    },
    {
      "inputs": [
        {
          "internalType": "address",
          "name": "from",
          "type": "address"
        },
        {
          "internalType": "address",
          "name": "to",
          "type": "address"
        },
        {
          "internalType": "uint256",
          "name": "tokenId",
          "type": "uint256"
        },
        {
          "internalType": "bytes",
          "name": "_data",
          "type": "bytes"
        }
      ],
      "name": "safeTransferFrom",
      "outputs": [],
      "stateMutability": "nonpayable",
      "type": "function"
    },
    {
      "inputs": [
        {
          "internalType": "address",
          "name": "operator",
          "type": "address"
        },
        {
          "internalType": "bool",
          "name": "approved",
          "type": "bool"
        }
      ],
      "name": "setApprovalForAll",
      "outputs": [],
      "stateMutability": "nonpayable",
      "type": "function"
    },
    {
      "inputs": [
        {
          "internalType": "bytes4",
          "name": "interfaceId",
          "type": "bytes4"
        }
      ],
      "name": "supportsInterface",
      "outputs": [
        {
          "internalType": "bool",
          "name": "",
          "type": "bool"
        }
      ],
      "stateMutability": "view",
      "type": "function"
    },
    {
      "inputs": [],
      "name": "symbol",
      "outputs": [
        {
          "internalType": "string",
          "name": "",
          "type": "string"
        }
      ],
      "stateMutability": "view",
      "type": "function"
    },
    {
      "inputs": [
        {
          "internalType": "uint256",
          "name": "tokenId",
          "type": "uint256"
        }
      ],
      "name": "tokenURI",
      "outputs": [
        {
          "internalType": "string",
          "name": "",
          "type": "string"
        }
      ],
      "stateMutability": "view",
      "type": "function"
    },
    {
      "inputs": [
        {
          "internalType": "address",
          "name": "from",
          "type": "address"
        },
        {
          "internalType": "address",
          "name": "to",
          "type": "address"
        },
        {
          "internalType": "uint256",
          "name": "tokenId",
          "type": "uint256"
        }
      ],
      "name": "transferFrom",
      "outputs": [],
      "stateMutability": "nonpayable",
      "type": "function"
    }
  ],
  "bytecode": "0x608060405260405180610160016040528061012f815260200162004cb261012f9139600d90805190602001906200003892919062000ac9565b506040518061016001604052806040518060400160405280600481526020017f466972650000000000000000000000000000000000000000000000000000000081525081526020016040518060400160405280600481526020017f57696e640000000000000000000000000000000000000000000000000000000081525081526020016040518060400160405280600481526020017f576176650000000000000000000000000000000000000000000000000000000081525081526020016040518060400160405280600581526020017f456172746800000000000000000000000000000000000000000000000000000081525081526020016040518060400160405280600581526020017f4c6967687400000000000000000000000000000000000000000000000000000081525081526020016040518060400160405280600681526020017f536861646f77000000000000000000000000000000000000000000000000000081525081526020016040518060400160405280600781526020017f5468756e6465720000000000000000000000000000000000000000000000000081525081526020016040518060400160405280600581526020017f537061636500000000000000000000000000000000000000000000000000000081525081526020016040518060400160405280600481526020017f54696d650000000000000000000000000000000000000000000000000000000081525081526020016040518060400160405280600781526020017f477261766974790000000000000000000000000000000000000000000000000081525081526020016040518060400160405280600381526020017f4963650000000000000000000000000000000000000000000000000000000000815250815250600e90600b620002de92919062000b5a565b50604051806101e001604052806040518060400160405280600581526020017f53776f726400000000000000000000000000000000000000000000000000000081525081526020016040518060400160405280600581526020017f537065617200000000000000000000000000000000000000000000000000000081525081526020016040518060400160405280600681526020017f536869656c64000000000000000000000000000000000000000000000000000081525081526020016040518060400160405280600681526020017f48616d6d6572000000000000000000000000000000000000000000000000000081525081526020016040518060400160405280600581526020017f536162657200000000000000000000000000000000000000000000000000000081525081526020016040518060400160405280600381526020017f417865000000000000000000000000000000000000000000000000000000000081525081526020016040518060400160405280600381526020017f426f77000000000000000000000000000000000000000000000000000000000081525081526020016040518060400160405280600581526020017f537461666600000000000000000000000000000000000000000000000000000081525081526020016040518060400160405280600481526020017f57616e640000000000000000000000000000000000000000000000000000000081525081526020016040518060400160405280600481526020017f466973740000000000000000000000000000000000000000000000000000000081525081526020016040518060400160405280600681526020017f446167676572000000000000000000000000000000000000000000000000000081525081526020016040518060400160405280600681526020017f536379746865000000000000000000000000000000000000000000000000000081525081526020016040518060400160405280600481526020017f4d6163650000000000000000000000000000000000000000000000000000000081525081526020016040518060400160405280600581526020017f426c61646500000000000000000000000000000000000000000000000000000081525081526020016040518060400160405280600681526020017f4b6174616e610000000000000000000000000000000000000000000000000000815250815250600f90600f6200067092919062000bc1565b506040518060e001604052806040518060400160405280600481526020017f4c6f72640000000000000000000000000000000000000000000000000000000081525081526020016040518060400160405280600481526020017f4b696e670000000000000000000000000000000000000000000000000000000081525081526020016040518060400160405280600781526020017f456d7065726f720000000000000000000000000000000000000000000000000081525081526020016040518060400160405280600981526020017f56656e657261626c65000000000000000000000000000000000000000000000081525081526020016040518060400160405280600881526020017f416e636573746f7200000000000000000000000000000000000000000000000081525081526020016040518060400160405280600581526020017f5361696e7400000000000000000000000000000000000000000000000000000081525081526020016040518060400160405280600381526020017f476f64000000000000000000000000000000000000000000000000000000000081525081525060109060076200082992919062000c28565b503480156200083757600080fd5b5060405162004de138038062004de183398181016040528101906200085d919062000d33565b6040518060400160405280600a81526020017f457465726e616c4e4654000000000000000000000000000000000000000000008152506040518060400160405280600481526020017f454e4654000000000000000000000000000000000000000000000000000000008152508160009080519060200190620008e192919062000ac9565b508060019080519060200190620008fa92919062000ac9565b50505080600860006101000a81548173ffffffffffffffffffffffffffffffffffffffff021916908373ffffffffffffffffffffffffffffffffffffffff1602179055506200094e6200099560201b60201c565b600990805190602001906200096592919062000ac9565b506200097662000a2f60201b60201c565b600a90805190602001906200098d92919062000ac9565b505062000e12565b606060008054620009a69062000d93565b80601f0160208091040260200160405190810160405280929190818152602001828054620009d49062000d93565b801562000a255780601f10620009f95761010080835404028352916020019162000a25565b820191906000526020600020905b81548152906001019060200180831162000a0757829003601f168201915b5050505050905090565b60606001805462000a409062000d93565b80601f016020809104026020016040519081016040528092919081815260200182805462000a6e9062000d93565b801562000abf5780601f1062000a935761010080835404028352916020019162000abf565b820191906000526020600020905b81548152906001019060200180831162000aa157829003601f168201915b5050505050905090565b82805462000ad79062000d93565b90600052602060002090601f01602090048101928262000afb576000855562000b47565b82601f1062000b1657805160ff191683800117855562000b47565b8280016001018555821562000b47579182015b8281111562000b4657825182559160200191906001019062000b29565b5b50905062000b56919062000c8f565b5090565b82805482825590600052602060002090810192821562000bae579160200282015b8281111562000bad57825182908051906020019062000b9c92919062000ac9565b509160200191906001019062000b7b565b5b50905062000bbd919062000cae565b5090565b82805482825590600052602060002090810192821562000c15579160200282015b8281111562000c1457825182908051906020019062000c0392919062000ac9565b509160200191906001019062000be2565b5b50905062000c24919062000cae565b5090565b82805482825590600052602060002090810192821562000c7c579160200282015b8281111562000c7b57825182908051906020019062000c6a92919062000ac9565b509160200191906001019062000c49565b5b50905062000c8b919062000cae565b5090565b5b8082111562000caa57600081600090555060010162000c90565b5090565b5b8082111562000cd2576000818162000cc8919062000cd6565b5060010162000caf565b5090565b50805462000ce49062000d93565b6000825580601f1062000cf8575062000d19565b601f01602090049060005260206000209081019062000d18919062000c8f565b5b50565b60008151905062000d2d8162000df8565b92915050565b60006020828403121562000d4657600080fd5b600062000d568482850162000d1c565b91505092915050565b600062000d6c8262000d73565b9050919050565b600073ffffffffffffffffffffffffffffffffffffffff82169050919050565b6000600282049050600182168062000dac57607f821691505b6020821081141562000dc35762000dc262000dc9565b5b50919050565b7f4e487b7100000000000000000000000000000000000000000000000000000000600052602260045260246000fd5b62000e038162000d5f565b811462000e0f57600080fd5b50565b613e908062000e226000396000f3fe608060405234801561001057600080fd5b506004361061012c5760003560e01c80636352211e116100ad578063c630338611610071578063c630338614610343578063c87b56dd14610373578063e2d2c308146103a3578063e5326ab1146103d3578063e985e9c5146103f15761012c565b80636352211e1461028d57806370a08231146102bd57806395d89b41146102ed578063a22cb4651461030b578063b88d4fde146103275761012c565b80632f39352a116100f45780632f39352a146101e75780633330880e1461020557806338c01442146102235780633bad0d361461024157806342842e0e146102715761012c565b806301ffc9a71461013157806306fdde0314610161578063081812fc1461017f578063095ea7b3146101af57806323b872dd146101cb575b600080fd5b61014b60048036038101906101469190612874565b610421565b60405161015891906130c1565b60405180910390f35b610169610503565b60405161017691906130dc565b60405180910390f35b610199600480360381019061019491906128c6565b610595565b6040516101a69190613038565b60405180910390f35b6101c960048036038101906101c49190612838565b61061a565b005b6101e560048036038101906101e09190612732565b610732565b005b6101ef610792565b6040516101fc91906130dc565b60405180910390f35b61020d610820565b60405161021a91906132fe565b60405180910390f35b61022b610a11565b604051610238919061309f565b60405180910390f35b61025b600480360381019061025691906128c6565b610d3e565b60405161026891906130dc565b60405180910390f35b61028b60048036038101906102869190612732565b610e5c565b005b6102a760048036038101906102a291906128c6565b610e7c565b6040516102b49190613038565b60405180910390f35b6102d760048036038101906102d291906126cd565b610f2e565b6040516102e491906132fe565b60405180910390f35b6102f5610fe6565b60405161030291906130dc565b60405180910390f35b610325600480360381019061032091906127fc565b611078565b005b610341600480360381019061033c9190612781565b6111f9565b005b61035d600480360381019061035891906128c6565b61125b565b60405161036a91906130dc565b60405180910390f35b61038d600480360381019061038891906128c6565b611379565b60405161039a91906130dc565b60405180910390f35b6103bd60048036038101906103b891906128c6565b6114cb565b6040516103ca91906130dc565b60405180910390f35b6103db6115e9565b6040516103e891906130dc565b60405180910390f35b61040b600480360381019061040691906126f6565b611677565b60405161041891906130c1565b60405180910390f35b60007f80ac58cd000000000000000000000000000000000000000000000000000000007bffffffffffffffffffffffffffffffffffffffffffffffffffffffff1916827bffffffffffffffffffffffffffffffffffffffffffffffffffffffff191614806104ec57507f5b5e139f000000000000000000000000000000000000000000000000000000007bffffffffffffffffffffffffffffffffffffffffffffffffffffffff1916827bffffffffffffffffffffffffffffffffffffffffffffffffffffffff1916145b806104fc57506104fb8261170b565b5b9050919050565b606060008054610512906135dc565b80601f016020809104026020016040519081016040528092919081815260200182805461053e906135dc565b801561058b5780601f106105605761010080835404028352916020019161058b565b820191906000526020600020905b81548152906001019060200180831161056e57829003601f168201915b5050505050905090565b60006105a082611775565b6105df576040517f08c379a00000000000000000000000000000000000000000000000000000000081526004016105d69061325e565b60405180910390fd5b6004600083815260200190815260200160002060009054906101000a900473ffffffffffffffffffffffffffffffffffffffff169050919050565b600061062582610e7c565b90508073ffffffffffffffffffffffffffffffffffffffff168373ffffffffffffffffffffffffffffffffffffffff161415610696576040517f08c379a000000000000000000000000000000000000000000000000000000000815260040161068d906132be565b60405180910390fd5b8073ffffffffffffffffffffffffffffffffffffffff166106b56117e1565b73ffffffffffffffffffffffffffffffffffffffff1614806106e457506106e3816106de6117e1565b611677565b5b610723576040517f08c379a000000000000000000000000000000000000000000000000000000000815260040161071a9061319e565b60405180910390fd5b61072d83836117e9565b505050565b61074361073d6117e1565b826118a2565b610782576040517f08c379a0000000000000000000000000000000000000000000000000000000008152600401610779906132de565b60405180910390fd5b61078d838383611980565b505050565b600a805461079f906135dc565b80601f01602080910402602001604051908101604052809291908181526020018280546107cb906135dc565b80156108185780601f106107ed57610100808354040283529160200191610818565b820191906000526020600020905b8154815290600101906020018083116107fb57829003601f168201915b505050505081565b60008061082d6007611bdc565b9050600061083a82610d3e565b905060006108478361125b565b90506000610854846114cb565b9050600083838360405160200161086d93929190612ef1565b60405160208183030381529060405290506000600d8585856040516020016108989493929190612f22565b604051602081830303815290604052905060006108dd836108b884611bea565b6040516020016108c9929190612faf565b604051602081830303815290604052611bea565b90506000816040516020016108f29190613016565b604051602081830303815290604052905061090d3389611da8565b6109178882611dc6565b610944600860009054906101000a900473ffffffffffffffffffffffffffffffffffffffff166001611078565b60405180606001604052808981526020013373ffffffffffffffffffffffffffffffffffffffff16815260200182815250600c60008a81526020019081526020016000206000820151816000015560208201518160010160006101000a81548173ffffffffffffffffffffffffffffffffffffffff021916908373ffffffffffffffffffffffffffffffffffffffff16021790555060408201518160020190805190602001906109f5929190612522565b50905050610a036007611e3a565b879850505050505050505090565b60606000610a1f6007611bdc565b905060008060005b83811015610abc573373ffffffffffffffffffffffffffffffffffffffff16600c600083815260200190815260200160002060010160009054906101000a900473ffffffffffffffffffffffffffffffffffffffff1673ffffffffffffffffffffffffffffffffffffffff161415610aa957600183610aa69190613411565b92505b8080610ab49061363f565b915050610a27565b5060008267ffffffffffffffff811115610aff577f4e487b7100000000000000000000000000000000000000000000000000000000600052604160045260246000fd5b604051908082528060200260200182016040528015610b3857816020015b610b256125a8565b815260200190600190039081610b1d5790505b50905060005b84811015610d33573373ffffffffffffffffffffffffffffffffffffffff16600c600083815260200190815260200160002060010160009054906101000a900473ffffffffffffffffffffffffffffffffffffffff1673ffffffffffffffffffffffffffffffffffffffff161415610d205760008190506000600c6000838152602001908152602001600020905080604051806060016040529081600082015481526020016001820160009054906101000a900473ffffffffffffffffffffffffffffffffffffffff1673ffffffffffffffffffffffffffffffffffffffff1673ffffffffffffffffffffffffffffffffffffffff168152602001600282018054610c48906135dc565b80601f0160208091040260200160405190810160405280929190818152602001828054610c74906135dc565b8015610cc15780601f10610c9657610100808354040283529160200191610cc1565b820191906000526020600020905b815481529060010190602001808311610ca457829003601f168201915b505050505081525050848681518110610d03577f4e487b7100000000000000000000000000000000000000000000000000000000600052603260045260246000fd5b6020026020010181905250600185610d1b9190613411565b945050505b8080610d2b9061363f565b915050610b3e565b508094505050505090565b60606000610d72610d4e84611e50565b604051602001610d5e9190612ff4565b604051602081830303815290604052611ffd565b9050600e8054905081610d859190613688565b9050600e8181548110610dc1577f4e487b7100000000000000000000000000000000000000000000000000000000600052603260045260246000fd5b906000526020600020018054610dd6906135dc565b80601f0160208091040260200160405190810160405280929190818152602001828054610e02906135dc565b8015610e4f5780601f10610e2457610100808354040283529160200191610e4f565b820191906000526020600020905b815481529060010190602001808311610e3257829003601f168201915b5050505050915050919050565b610e77838383604051806020016040528060008152506111f9565b505050565b6000806002600084815260200190815260200160002060009054906101000a900473ffffffffffffffffffffffffffffffffffffffff169050600073ffffffffffffffffffffffffffffffffffffffff168173ffffffffffffffffffffffffffffffffffffffff161415610f25576040517f08c379a0000000000000000000000000000000000000000000000000000000008152600401610f1c906131de565b60405180910390fd5b80915050919050565b60008073ffffffffffffffffffffffffffffffffffffffff168273ffffffffffffffffffffffffffffffffffffffff161415610f9f576040517f08c379a0000000000000000000000000000000000000000000000000000000008152600401610f96906131be565b60405180910390fd5b600360008373ffffffffffffffffffffffffffffffffffffffff1673ffffffffffffffffffffffffffffffffffffffff168152602001908152602001600020549050919050565b606060018054610ff5906135dc565b80601f0160208091040260200160405190810160405280929190818152602001828054611021906135dc565b801561106e5780601f106110435761010080835404028352916020019161106e565b820191906000526020600020905b81548152906001019060200180831161105157829003601f168201915b5050505050905090565b6110806117e1565b73ffffffffffffffffffffffffffffffffffffffff168273ffffffffffffffffffffffffffffffffffffffff1614156110ee576040517f08c379a00000000000000000000000000000000000000000000000000000000081526004016110e59061315e565b60405180910390fd5b80600560006110fb6117e1565b73ffffffffffffffffffffffffffffffffffffffff1673ffffffffffffffffffffffffffffffffffffffff16815260200190815260200160002060008473ffffffffffffffffffffffffffffffffffffffff1673ffffffffffffffffffffffffffffffffffffffff16815260200190815260200160002060006101000a81548160ff0219169083151502179055508173ffffffffffffffffffffffffffffffffffffffff166111a86117e1565b73ffffffffffffffffffffffffffffffffffffffff167f17307eab39ab6107e8899845ad3d59bd9653f200f220920489ca2b5937696c31836040516111ed91906130c1565b60405180910390a35050565b61120a6112046117e1565b836118a2565b611249576040517f08c379a0000000000000000000000000000000000000000000000000000000008152600401611240906132de565b60405180910390fd5b61125584848484612030565b50505050565b6060600061128f61126b84611e50565b60405160200161127b9190612f6b565b604051602081830303815290604052611ffd565b9050600f80549050816112a29190613688565b9050600f81815481106112de577f4e487b7100000000000000000000000000000000000000000000000000000000600052603260045260246000fd5b9060005260206000200180546112f3906135dc565b80601f016020809104026020016040519081016040528092919081815260200182805461131f906135dc565b801561136c5780601f106113415761010080835404028352916020019161136c565b820191906000526020600020905b81548152906001019060200180831161134f57829003601f168201915b5050505050915050919050565b606061138482611775565b6113c3576040517f08c379a00000000000000000000000000000000000000000000000000000000081526004016113ba9061323e565b60405180910390fd5b60006006600084815260200190815260200160002080546113e3906135dc565b80601f016020809104026020016040519081016040528092919081815260200182805461140f906135dc565b801561145c5780601f106114315761010080835404028352916020019161145c565b820191906000526020600020905b81548152906001019060200180831161143f57829003601f168201915b50505050509050600061146d61208c565b90506000815114156114835781925050506114c6565b6000825111156114b85780826040516020016114a0929190612ecd565b604051602081830303815290604052925050506114c6565b6114c1846120a3565b925050505b919050565b606060006114ff6114db84611e50565b6040516020016114eb9190612f8d565b604051602081830303815290604052611ffd565b9050601080549050816115129190613688565b90506010818154811061154e577f4e487b7100000000000000000000000000000000000000000000000000000000600052603260045260246000fd5b906000526020600020018054611563906135dc565b80601f016020809104026020016040519081016040528092919081815260200182805461158f906135dc565b80156115dc5780601f106115b1576101008083540402835291602001916115dc565b820191906000526020600020905b8154815290600101906020018083116115bf57829003601f168201915b5050505050915050919050565b600980546115f6906135dc565b80601f0160208091040260200160405190810160405280929190818152602001828054611622906135dc565b801561166f5780601f106116445761010080835404028352916020019161166f565b820191906000526020600020905b81548152906001019060200180831161165257829003601f168201915b505050505081565b6000600560008473ffffffffffffffffffffffffffffffffffffffff1673ffffffffffffffffffffffffffffffffffffffff16815260200190815260200160002060008373ffffffffffffffffffffffffffffffffffffffff1673ffffffffffffffffffffffffffffffffffffffff16815260200190815260200160002060009054906101000a900460ff16905092915050565b60007f01ffc9a7000000000000000000000000000000000000000000000000000000007bffffffffffffffffffffffffffffffffffffffffffffffffffffffff1916827bffffffffffffffffffffffffffffffffffffffffffffffffffffffff1916149050919050565b60008073ffffffffffffffffffffffffffffffffffffffff166002600084815260200190815260200160002060009054906101000a900473ffffffffffffffffffffffffffffffffffffffff1673ffffffffffffffffffffffffffffffffffffffff1614159050919050565b600033905090565b816004600083815260200190815260200160002060006101000a81548173ffffffffffffffffffffffffffffffffffffffff021916908373ffffffffffffffffffffffffffffffffffffffff160217905550808273ffffffffffffffffffffffffffffffffffffffff1661185c83610e7c565b73ffffffffffffffffffffffffffffffffffffffff167f8c5be1e5ebec7d5bd14f71427d1e84f3dd0314c0f7b2291e5b200ac8c7c3b92560405160405180910390a45050565b60006118ad82611775565b6118ec576040517f08c379a00000000000000000000000000000000000000000000000000000000081526004016118e39061317e565b60405180910390fd5b60006118f783610e7c565b90508073ffffffffffffffffffffffffffffffffffffffff168473ffffffffffffffffffffffffffffffffffffffff16148061196657508373ffffffffffffffffffffffffffffffffffffffff1661194e84610595565b73ffffffffffffffffffffffffffffffffffffffff16145b8061197757506119768185611677565b5b91505092915050565b8273ffffffffffffffffffffffffffffffffffffffff166119a082610e7c565b73ffffffffffffffffffffffffffffffffffffffff16146119f6576040517f08c379a00000000000000000000000000000000000000000000000000000000081526004016119ed9061327e565b60405180910390fd5b600073ffffffffffffffffffffffffffffffffffffffff168273ffffffffffffffffffffffffffffffffffffffff161415611a66576040517f08c379a0000000000000000000000000000000000000000000000000000000008152600401611a5d9061313e565b60405180910390fd5b611a7183838361214a565b611a7c6000826117e9565b6001600360008573ffffffffffffffffffffffffffffffffffffffff1673ffffffffffffffffffffffffffffffffffffffff1681526020019081526020016000206000828254611acc91906134f2565b925050819055506001600360008473ffffffffffffffffffffffffffffffffffffffff1673ffffffffffffffffffffffffffffffffffffffff1681526020019081526020016000206000828254611b239190613411565b92505081905550816002600083815260200190815260200160002060006101000a81548173ffffffffffffffffffffffffffffffffffffffff021916908373ffffffffffffffffffffffffffffffffffffffff160217905550808273ffffffffffffffffffffffffffffffffffffffff168473ffffffffffffffffffffffffffffffffffffffff167fddf252ad1be2c89b69c2b068fc378daa952ba7f163c4a11628f55a4df523b3ef60405160405180910390a4505050565b600081600001549050919050565b60606000825190506000811415611c135760405180602001604052806000815250915050611da3565b60006003600283611c249190613411565b611c2e9190613467565b6004611c3a9190613498565b90506000602082611c4b9190613411565b67ffffffffffffffff811115611c8a577f4e487b7100000000000000000000000000000000000000000000000000000000600052604160045260246000fd5b6040519080825280601f01601f191660200182016040528015611cbc5781602001600182028036833780820191505090505b5090506000604051806060016040528060408152602001613e1b604091399050600181016020830160005b86811015611d605760038101905062ffffff818a015116603f8160121c168401518060081b905060ff603f83600c1c1686015116810190508060081b905060ff603f8360061c1686015116810190508060081b905060ff603f831686015116810190508060e01b90508084526004840193505050611ce7565b506003860660018114611d7a5760028114611d8a57611d95565b613d3d60f01b6002830352611d95565b603d60f81b60018303525b508484525050819450505050505b919050565b611dc282826040518060200160405280600081525061214f565b5050565b611dcf82611775565b611e0e576040517f08c379a0000000000000000000000000000000000000000000000000000000008152600401611e05906131fe565b60405180910390fd5b80600660008481526020019081526020016000209080519060200190611e35929190612522565b505050565b6001816000016000828254019250508190555050565b60606000821415611e98576040518060400160405280600181526020017f30000000000000000000000000000000000000000000000000000000000000008152509050611ff8565b600082905060005b60008214611eca578080611eb39061363f565b915050600a82611ec39190613467565b9150611ea0565b60008167ffffffffffffffff811115611f0c577f4e487b7100000000000000000000000000000000000000000000000000000000600052604160045260246000fd5b6040519080825280601f01601f191660200182016040528015611f3e5781602001600182028036833780820191505090505b5090505b60008514611ff157600182611f5791906134f2565b9150600a85611f669190613688565b6030611f729190613411565b60f81b818381518110611fae577f4e487b7100000000000000000000000000000000000000000000000000000000600052603260045260246000fd5b60200101907effffffffffffffffffffffffffffffffffffffffffffffffffffffffffffff1916908160001a905350600a85611fea9190613467565b9450611f42565b8093505050505b919050565b6000816040516020016120109190612eb6565b6040516020818303038152906040528051906020012060001c9050919050565b61203b848484611980565b612047848484846121aa565b612086576040517f08c379a000000000000000000000000000000000000000000000000000000000815260040161207d906130fe565b60405180910390fd5b50505050565b606060405180602001604052806000815250905090565b60606120ae82611775565b6120ed576040517f08c379a00000000000000000000000000000000000000000000000000000000081526004016120e49061329e565b60405180910390fd5b60006120f761208c565b905060008151116121175760405180602001604052806000815250612142565b8061212184611e50565b604051602001612132929190612ecd565b6040516020818303038152906040525b915050919050565b505050565b6121598383612341565b61216660008484846121aa565b6121a5576040517f08c379a000000000000000000000000000000000000000000000000000000000815260040161219c906130fe565b60405180910390fd5b505050565b60006121cb8473ffffffffffffffffffffffffffffffffffffffff1661250f565b15612334578373ffffffffffffffffffffffffffffffffffffffff1663150b7a026121f46117e1565b8786866040518563ffffffff1660e01b81526004016122169493929190613053565b602060405180830381600087803b15801561223057600080fd5b505af192505050801561226157506040513d601f19601f8201168201806040525081019061225e919061289d565b60015b6122e4573d8060008114612291576040519150601f19603f3d011682016040523d82523d6000602084013e612296565b606091505b506000815114156122dc576040517f08c379a00000000000000000000000000000000000000000000000000000000081526004016122d3906130fe565b60405180910390fd5b805181602001fd5b63150b7a0260e01b7bffffffffffffffffffffffffffffffffffffffffffffffffffffffff1916817bffffffffffffffffffffffffffffffffffffffffffffffffffffffff191614915050612339565b600190505b949350505050565b600073ffffffffffffffffffffffffffffffffffffffff168273ffffffffffffffffffffffffffffffffffffffff1614156123b1576040517f08c379a00000000000000000000000000000000000000000000000000000000081526004016123a89061321e565b60405180910390fd5b6123ba81611775565b156123fa576040517f08c379a00000000000000000000000000000000000000000000000000000000081526004016123f19061311e565b60405180910390fd5b6124066000838361214a565b6001600360008473ffffffffffffffffffffffffffffffffffffffff1673ffffffffffffffffffffffffffffffffffffffff16815260200190815260200160002060008282546124569190613411565b92505081905550816002600083815260200190815260200160002060006101000a81548173ffffffffffffffffffffffffffffffffffffffff021916908373ffffffffffffffffffffffffffffffffffffffff160217905550808273ffffffffffffffffffffffffffffffffffffffff16600073ffffffffffffffffffffffffffffffffffffffff167fddf252ad1be2c89b69c2b068fc378daa952ba7f163c4a11628f55a4df523b3ef60405160405180910390a45050565b600080823b905060008111915050919050565b82805461252e906135dc565b90600052602060002090601f0160209004810192826125505760008555612597565b82601f1061256957805160ff1916838001178555612597565b82800160010185558215612597579182015b8281111561259657825182559160200191906001019061257b565b5b5090506125a491906125df565b5090565b604051806060016040528060008152602001600073ffffffffffffffffffffffffffffffffffffffff168152602001606081525090565b5b808211156125f85760008160009055506001016125e0565b5090565b600061260f61260a8461333e565b613319565b90508281526020810184848401111561262757600080fd5b61263284828561359a565b509392505050565b60008135905061264981613dbe565b92915050565b60008135905061265e81613dd5565b92915050565b60008135905061267381613dec565b92915050565b60008151905061268881613dec565b92915050565b600082601f83011261269f57600080fd5b81356126af8482602086016125fc565b91505092915050565b6000813590506126c781613e03565b92915050565b6000602082840312156126df57600080fd5b60006126ed8482850161263a565b91505092915050565b6000806040838503121561270957600080fd5b60006127178582860161263a565b92505060206127288582860161263a565b9150509250929050565b60008060006060848603121561274757600080fd5b60006127558682870161263a565b93505060206127668682870161263a565b9250506040612777868287016126b8565b9150509250925092565b6000806000806080858703121561279757600080fd5b60006127a58782880161263a565b94505060206127b68782880161263a565b93505060406127c7878288016126b8565b925050606085013567ffffffffffffffff8111156127e457600080fd5b6127f08782880161268e565b91505092959194509250565b6000806040838503121561280f57600080fd5b600061281d8582860161263a565b925050602061282e8582860161264f565b9150509250929050565b6000806040838503121561284b57600080fd5b60006128598582860161263a565b925050602061286a858286016126b8565b9150509250929050565b60006020828403121561288657600080fd5b600061289484828501612664565b91505092915050565b6000602082840312156128af57600080fd5b60006128bd84828501612679565b91505092915050565b6000602082840312156128d857600080fd5b60006128e6848285016126b8565b91505092915050565b60006128fb8383612e48565b905092915050565b61290c81613526565b82525050565b61291b81613526565b82525050565b600061292c82613394565b61293681856133c2565b9350836020820285016129488561336f565b8060005b85811015612984578484038952815161296585826128ef565b9450612970836133b5565b925060208a0199505060018101905061294c565b50829750879550505050505092915050565b61299f81613538565b82525050565b60006129b08261339f565b6129ba81856133d3565b93506129ca8185602086016135a9565b6129d381613775565b840191505092915050565b60006129e9826133aa565b6129f381856133e4565b9350612a038185602086016135a9565b612a0c81613775565b840191505092915050565b6000612a22826133aa565b612a2c81856133f5565b9350612a3c8185602086016135a9565b612a4581613775565b840191505092915050565b6000612a5b826133aa565b612a658185613406565b9350612a758185602086016135a9565b80840191505092915050565b60008154612a8e816135dc565b612a988186613406565b94506001821660008114612ab35760018114612ac457612af7565b60ff19831686528186019350612af7565b612acd8561337f565b60005b83811015612aef57815481890152600182019150602081019050612ad0565b838801955050505b50505092915050565b6000612b0d6032836133f5565b9150612b1882613786565b604082019050919050565b6000612b30601c836133f5565b9150612b3b826137d5565b602082019050919050565b6000612b53600683613406565b9150612b5e826137fe565b600682019050919050565b6000612b766024836133f5565b9150612b8182613827565b604082019050919050565b6000612b996019836133f5565b9150612ba482613876565b602082019050919050565b6000612bbc602c836133f5565b9150612bc78261389f565b604082019050919050565b6000612bdf600d83613406565b9150612bea826138ee565b600d82019050919050565b6000612c026038836133f5565b9150612c0d82613917565b604082019050919050565b6000612c25602a836133f5565b9150612c3082613966565b604082019050919050565b6000612c486029836133f5565b9150612c53826139b5565b604082019050919050565b6000612c6b602e836133f5565b9150612c7682613a04565b604082019050919050565b6000612c8e600483613406565b9150612c9982613a53565b600482019050919050565b6000612cb1600283613406565b9150612cbc82613a7c565b600282019050919050565b6000612cd46020836133f5565b9150612cdf82613aa5565b602082019050919050565b6000612cf76031836133f5565b9150612d0282613ace565b604082019050919050565b6000612d1a602c836133f5565b9150612d2582613b1d565b604082019050919050565b6000612d3d6029836133f5565b9150612d4882613b6c565b604082019050919050565b6000612d60602f836133f5565b9150612d6b82613bbb565b604082019050919050565b6000612d83600a83613406565b9150612d8e82613c0a565b600a82019050919050565b6000612da6600783613406565b9150612db182613c33565b600782019050919050565b6000612dc96021836133f5565b9150612dd482613c5c565b604082019050919050565b6000612dec601d83613406565b9150612df782613cab565b601d82019050919050565b6000612e0f6031836133f5565b9150612e1a82613cd4565b604082019050919050565b6000612e32606883613406565b9150612e3d82613d23565b606882019050919050565b6000606083016000830151612e606000860182612e98565b506020830151612e736020860182612903565b5060408301518482036040860152612e8b82826129de565b9150508091505092915050565b612ea181613590565b82525050565b612eb081613590565b82525050565b6000612ec28284612a50565b915081905092915050565b6000612ed98285612a50565b9150612ee58284612a50565b91508190509392505050565b6000612efd8286612a50565b9150612f098285612a50565b9150612f158284612a50565b9150819050949350505050565b6000612f2e8287612a81565b9150612f3a8286612a50565b9150612f468285612a50565b9150612f528284612a50565b9150612f5d82612bd2565b915081905095945050505050565b6000612f7682612b46565b9150612f828284612a50565b915081905092915050565b6000612f9882612c81565b9150612fa48284612a50565b915081905092915050565b6000612fba82612d76565b9150612fc68285612a50565b9150612fd182612e25565b9150612fdd8284612a50565b9150612fe882612ca4565b91508190509392505050565b6000612fff82612d99565b915061300b8284612a50565b915081905092915050565b600061302182612ddf565b915061302d8284612a50565b915081905092915050565b600060208201905061304d6000830184612912565b92915050565b60006080820190506130686000830187612912565b6130756020830186612912565b6130826040830185612ea7565b818103606083015261309481846129a5565b905095945050505050565b600060208201905081810360008301526130b98184612921565b905092915050565b60006020820190506130d66000830184612996565b92915050565b600060208201905081810360008301526130f68184612a17565b905092915050565b6000602082019050818103600083015261311781612b00565b9050919050565b6000602082019050818103600083015261313781612b23565b9050919050565b6000602082019050818103600083015261315781612b69565b9050919050565b6000602082019050818103600083015261317781612b8c565b9050919050565b6000602082019050818103600083015261319781612baf565b9050919050565b600060208201905081810360008301526131b781612bf5565b9050919050565b600060208201905081810360008301526131d781612c18565b9050919050565b600060208201905081810360008301526131f781612c3b565b9050919050565b6000602082019050818103600083015261321781612c5e565b9050919050565b6000602082019050818103600083015261323781612cc7565b9050919050565b6000602082019050818103600083015261325781612cea565b9050919050565b6000602082019050818103600083015261327781612d0d565b9050919050565b6000602082019050818103600083015261329781612d30565b9050919050565b600060208201905081810360008301526132b781612d53565b9050919050565b600060208201905081810360008301526132d781612dbc565b9050919050565b600060208201905081810360008301526132f781612e02565b9050919050565b60006020820190506133136000830184612ea7565b92915050565b6000613323613334565b905061332f828261360e565b919050565b6000604051905090565b600067ffffffffffffffff82111561335957613358613746565b5b61336282613775565b9050602081019050919050565b6000819050602082019050919050565b60008190508160005260206000209050919050565b600081519050919050565b600081519050919050565b600081519050919050565b6000602082019050919050565b600082825260208201905092915050565b600082825260208201905092915050565b600082825260208201905092915050565b600082825260208201905092915050565b600081905092915050565b600061341c82613590565b915061342783613590565b9250827fffffffffffffffffffffffffffffffffffffffffffffffffffffffffffffffff0382111561345c5761345b6136b9565b5b828201905092915050565b600061347282613590565b915061347d83613590565b92508261348d5761348c6136e8565b5b828204905092915050565b60006134a382613590565b91506134ae83613590565b9250817fffffffffffffffffffffffffffffffffffffffffffffffffffffffffffffffff04831182151516156134e7576134e66136b9565b5b828202905092915050565b60006134fd82613590565b915061350883613590565b92508282101561351b5761351a6136b9565b5b828203905092915050565b600061353182613570565b9050919050565b60008115159050919050565b60007fffffffff0000000000000000000000000000000000000000000000000000000082169050919050565b600073ffffffffffffffffffffffffffffffffffffffff82169050919050565b6000819050919050565b82818337600083830152505050565b60005b838110156135c75780820151818401526020810190506135ac565b838111156135d6576000848401525b50505050565b600060028204905060018216806135f457607f821691505b6020821081141561360857613607613717565b5b50919050565b61361782613775565b810181811067ffffffffffffffff8211171561363657613635613746565b5b80604052505050565b600061364a82613590565b91507fffffffffffffffffffffffffffffffffffffffffffffffffffffffffffffffff82141561367d5761367c6136b9565b5b600182019050919050565b600061369382613590565b915061369e83613590565b9250826136ae576136ad6136e8565b5b828206905092915050565b7f4e487b7100000000000000000000000000000000000000000000000000000000600052601160045260246000fd5b7f4e487b7100000000000000000000000000000000000000000000000000000000600052601260045260246000fd5b7f4e487b7100000000000000000000000000000000000000000000000000000000600052602260045260246000fd5b7f4e487b7100000000000000000000000000000000000000000000000000000000600052604160045260246000fd5b6000601f19601f8301169050919050565b7f4552433732313a207472616e7366657220746f206e6f6e20455243373231526560008201527f63656976657220696d706c656d656e7465720000000000000000000000000000602082015250565b7f4552433732313a20746f6b656e20616c7265616479206d696e74656400000000600082015250565b7f776561706f6e0000000000000000000000000000000000000000000000000000600082015250565b7f4552433732313a207472616e7366657220746f20746865207a65726f2061646460008201527f7265737300000000000000000000000000000000000000000000000000000000602082015250565b7f4552433732313a20617070726f766520746f2063616c6c657200000000000000600082015250565b7f4552433732313a206f70657261746f7220717565727920666f72206e6f6e657860008201527f697374656e7420746f6b656e0000000000000000000000000000000000000000602082015250565b7f3c2f746578743e3c2f7376673e00000000000000000000000000000000000000600082015250565b7f4552433732313a20617070726f76652063616c6c6572206973206e6f74206f7760008201527f6e6572206e6f7220617070726f76656420666f7220616c6c0000000000000000602082015250565b7f4552433732313a2062616c616e636520717565727920666f7220746865207a6560008201527f726f206164647265737300000000000000000000000000000000000000000000602082015250565b7f4552433732313a206f776e657220717565727920666f72206e6f6e657869737460008201527f656e7420746f6b656e0000000000000000000000000000000000000000000000602082015250565b7f45524337323155524953746f726167653a2055524920736574206f66206e6f6e60008201527f6578697374656e7420746f6b656e000000000000000000000000000000000000602082015250565b7f72616e6b00000000000000000000000000000000000000000000000000000000600082015250565b7f227d000000000000000000000000000000000000000000000000000000000000600082015250565b7f4552433732313a206d696e7420746f20746865207a65726f2061646472657373600082015250565b7f45524337323155524953746f726167653a2055524920717565727920666f722060008201527f6e6f6e6578697374656e7420746f6b656e000000000000000000000000000000602082015250565b7f4552433732313a20617070726f76656420717565727920666f72206e6f6e657860008201527f697374656e7420746f6b656e0000000000000000000000000000000000000000602082015250565b7f4552433732313a207472616e73666572206f6620746f6b656e2074686174206960008201527f73206e6f74206f776e0000000000000000000000000000000000000000000000602082015250565b7f4552433732314d657461646174613a2055524920717565727920666f72206e6f60008201527f6e6578697374656e7420746f6b656e0000000000000000000000000000000000602082015250565b7f7b226e616d65223a202200000000000000000000000000000000000000000000600082015250565b7f656c656d656e7400000000000000000000000000000000000000000000000000600082015250565b7f4552433732313a20617070726f76616c20746f2063757272656e74206f776e6560008201527f7200000000000000000000000000000000000000000000000000000000000000602082015250565b7f646174613a6170706c69636174696f6e2f6a736f6e3b6261736536342c000000600082015250565b7f4552433732313a207472616e736665722063616c6c6572206973206e6f74206f60008201527f776e6572206e6f7220617070726f766564000000000000000000000000000000602082015250565b7f222c20226465736372697074696f6e223a20224120686967686c79206163636c60008201527f61696d656420636f6c6c656374696f6e20457465726e616c2057617272696f7260208201527f73222c2022696d616765223a2022646174613a696d6167652f7376672b786d6c60408201527f3b6261736536342c000000000000000000000000000000000000000000000000606082015250565b613dc781613526565b8114613dd257600080fd5b50565b613dde81613538565b8114613de957600080fd5b50565b613df581613544565b8114613e0057600080fd5b50565b613e0c81613590565b8114613e1757600080fd5b5056fe4142434445464748494a4b4c4d4e4f505152535455565758595a6162636465666768696a6b6c6d6e6f707172737475767778797a303132333435363738392b2fa2646970667358221220c182839f3762f1394a4c8936fcea0f7a4aafd718971ccae5b0f91ec739afdce564736f6c634300080300333c73766720786d6c6e733d27687474703a2f2f7777772e77332e6f72672f323030302f73766727207072657365727665417370656374526174696f3d27784d696e594d696e206d656574272076696577426f783d273020302033353020333530273e3c7374796c653e2e62617365207b2066696c6c3a2077686974653b20666f6e742d66616d696c793a2073657269663b20666f6e742d73697a653a20323470783b207d3c2f7374796c653e3c726563742077696474683d273130302527206865696768743d2731303025272066696c6c3d27626c61636b27202f3e3c7465787420783d273530252720793d273530252720636c6173733d27626173652720646f6d696e616e742d626173656c696e653d276d6964646c652720746578742d616e63686f723d276d6964646c65273e",
  "linkReferences": {},
  "deployedLinkReferences": {}
}